{
  "contractName": "Api",
  "abi": [
    {
      "constant": true,
      "inputs": [],
      "name": "owner",
      "outputs": [
        {
          "name": "",
          "type": "address"
        }
      ],
      "payable": false,
      "stateMutability": "view",
      "type": "function"
    },
    {
      "inputs": [],
      "payable": false,
      "stateMutability": "nonpayable",
      "type": "constructor"
    },
    {
      "anonymous": false,
      "inputs": [
        {
          "indexed": false,
          "name": "id",
          "type": "bytes32"
        },
        {
          "indexed": false,
          "name": "data",
          "type": "string"
        }
      ],
      "name": "APIexecute",
      "type": "event"
    },
    {
      "constant": false,
      "inputs": [
        {
          "name": "data",
          "type": "string"
        }
      ],
      "name": "execute",
      "outputs": [],
      "payable": true,
      "stateMutability": "payable",
      "type": "function"
    }
  ],
  "bytecode": "0x608060405234801561001057600080fd5b50336000806101000a81548173ffffffffffffffffffffffffffffffffffffffff021916908373ffffffffffffffffffffffffffffffffffffffff160217905550610323806100606000396000f30060806040526004361061004c576000357c0100000000000000000000000000000000000000000000000000000000900463ffffffff1680638da5cb5b14610051578063bd590d7e146100a8575b600080fd5b34801561005d57600080fd5b50610066610104565b604051808273ffffffffffffffffffffffffffffffffffffffff1673ffffffffffffffffffffffffffffffffffffffff16815260200191505060405180910390f35b610102600480360381019080803590602001908201803590602001908080601f0160208091040260200160405190810160405280939291908181526020018383808284378201915050505050509192919290505050610129565b005b6000809054906101000a900473ffffffffffffffffffffffffffffffffffffffff1681565b6000334383604051602001808473ffffffffffffffffffffffffffffffffffffffff1673ffffffffffffffffffffffffffffffffffffffff166c0100000000000000000000000002815260140183815260200182805190602001908083835b6020831015156101ad5780518252602082019150602081019050602083039250610188565b6001836020036101000a03801982511681845116808217855250505050505090500193505050506040516020818303038152906040526040518082805190602001908083835b60208310151561021857805182526020820191506020810190506020830392506101f3565b6001836020036101000a038019825116818451168082178552505050505050905001915050604051809103902090507f0ea71fd67ae0b2d392b6be3f820daaa024afc0e556e6f81c6a45a2faae490a94818360405180836000191660001916815260200180602001828103825283818151815260200191508051906020019080838360005b838110156102b857808201518184015260208101905061029d565b50505050905090810190601f1680156102e55780820380516001836020036101000a031916815260200191505b50935050505060405180910390a150505600a165627a7a72305820b74444b2778865dec0e858e9c77bfcd629bd8f5e76856218f45fb33b3bdceee60029",
  "source": "pragma solidity ^0.4.23;\n\ncontract Api {\n    address public owner;\n    mapping (bytes32=>uint) verifications;\n\n    event APIexecute(bytes32 id, string data);\n\n    constructor() public {\n        owner = msg.sender;\n    }\n\n    function execute(string data) public payable {\n        bytes32 id = keccak256(\n            abi.encodePacked(msg.sender, block.number, data)\n        );\n        emit APIexecute(id, data);\n    }\n}\n",
  "sourcePath": "/Users/antho/prog/hackathon/pegasys/services/api-contract/contracts/Api.sol",
  "compiler": {
    "name": "solc",
    "version": "0.4.24+commit.e67f0147.Emscripten.clang"
  },
  "schemaVersion": "2.0.1",
  "updatedAt": "2018-11-03T13:55:38.951Z"
}